{
  "_format": "hh-sol-artifact-1",
  "contractName": "ParaSwapLiquiditySwapAdapter",
  "sourceName": "contracts/adapters/paraswap/ParaSwapLiquiditySwapAdapter.sol",
  "abi": [
    {
      "inputs": [
        {
          "internalType": "contract IPoolAddressesProvider",
          "name": "addressesProvider",
          "type": "address"
        },
        {
          "internalType": "contract IParaSwapAugustusRegistry",
          "name": "augustusRegistry",
          "type": "address"
        },
        {
          "internalType": "address",
          "name": "owner",
          "type": "address"
        }
      ],
      "stateMutability": "nonpayable",
      "type": "constructor"
    },
    {
      "anonymous": false,
      "inputs": [
        {
          "indexed": true,
          "internalType": "address",
          "name": "fromAsset",
          "type": "address"
        },
        {
          "indexed": true,
          "internalType": "address",
          "name": "toAsset",
          "type": "address"
        },
        {
          "indexed": false,
          "internalType": "uint256",
          "name": "amountSold",
          "type": "uint256"
        },
        {
          "indexed": false,
          "internalType": "uint256",
          "name": "receivedAmount",
          "type": "uint256"
        }
      ],
      "name": "Bought",
      "type": "event"
    },
    {
      "anonymous": false,
      "inputs": [
        {
          "indexed": true,
          "internalType": "address",
          "name": "previousOwner",
          "type": "address"
        },
        {
          "indexed": true,
          "internalType": "address",
          "name": "newOwner",
          "type": "address"
        }
      ],
      "name": "OwnershipTransferred",
      "type": "event"
    },
    {
      "anonymous": false,
      "inputs": [
        {
          "indexed": true,
          "internalType": "address",
          "name": "fromAsset",
          "type": "address"
        },
        {
          "indexed": true,
          "internalType": "address",
          "name": "toAsset",
          "type": "address"
        },
        {
          "indexed": false,
          "internalType": "uint256",
          "name": "fromAmount",
          "type": "uint256"
        },
        {
          "indexed": false,
          "internalType": "uint256",
          "name": "receivedAmount",
          "type": "uint256"
        }
      ],
      "name": "Swapped",
      "type": "event"
    },
    {
      "inputs": [],
      "name": "ADDRESSES_PROVIDER",
      "outputs": [
        {
          "internalType": "contract IPoolAddressesProvider",
          "name": "",
          "type": "address"
        }
      ],
      "stateMutability": "view",
      "type": "function"
    },
    {
      "inputs": [],
      "name": "AUGUSTUS_REGISTRY",
      "outputs": [
        {
          "internalType": "contract IParaSwapAugustusRegistry",
          "name": "",
          "type": "address"
        }
      ],
      "stateMutability": "view",
      "type": "function"
    },
    {
      "inputs": [],
      "name": "MAX_SLIPPAGE_PERCENT",
      "outputs": [
        {
          "internalType": "uint256",
          "name": "",
          "type": "uint256"
        }
      ],
      "stateMutability": "view",
      "type": "function"
    },
    {
      "inputs": [],
      "name": "ORACLE",
      "outputs": [
        {
          "internalType": "contract IPriceOracleGetter",
          "name": "",
          "type": "address"
        }
      ],
      "stateMutability": "view",
      "type": "function"
    },
    {
      "inputs": [],
      "name": "POOL",
      "outputs": [
        {
          "internalType": "contract IPool",
          "name": "",
          "type": "address"
        }
      ],
      "stateMutability": "view",
      "type": "function"
    },
    {
      "inputs": [
        {
          "internalType": "address[]",
          "name": "assets",
          "type": "address[]"
        },
        {
          "internalType": "uint256[]",
          "name": "amounts",
          "type": "uint256[]"
        },
        {
          "internalType": "uint256[]",
          "name": "premiums",
          "type": "uint256[]"
        },
        {
          "internalType": "address",
          "name": "initiator",
          "type": "address"
        },
        {
          "internalType": "bytes",
          "name": "params",
          "type": "bytes"
        }
      ],
      "name": "executeOperation",
      "outputs": [
        {
          "internalType": "bool",
          "name": "",
          "type": "bool"
        }
      ],
      "stateMutability": "nonpayable",
      "type": "function"
    },
    {
      "inputs": [],
      "name": "owner",
      "outputs": [
        {
          "internalType": "address",
          "name": "",
          "type": "address"
        }
      ],
      "stateMutability": "view",
      "type": "function"
    },
    {
      "inputs": [],
      "name": "renounceOwnership",
      "outputs": [],
      "stateMutability": "nonpayable",
      "type": "function"
    },
    {
      "inputs": [
        {
          "internalType": "contract IERC20",
          "name": "token",
          "type": "address"
        }
      ],
      "name": "rescueTokens",
      "outputs": [],
      "stateMutability": "nonpayable",
      "type": "function"
    },
    {
      "inputs": [
        {
          "internalType": "contract IERC20Detailed",
          "name": "assetToSwapFrom",
          "type": "address"
        },
        {
          "internalType": "contract IERC20Detailed",
          "name": "assetToSwapTo",
          "type": "address"
        },
        {
          "internalType": "uint256",
          "name": "amountToSwap",
          "type": "uint256"
        },
        {
          "internalType": "uint256",
          "name": "minAmountToReceive",
          "type": "uint256"
        },
        {
          "internalType": "uint256",
          "name": "swapAllBalanceOffset",
          "type": "uint256"
        },
        {
          "internalType": "bytes",
          "name": "swapCalldata",
          "type": "bytes"
        },
        {
          "internalType": "contract IParaSwapAugustus",
          "name": "augustus",
          "type": "address"
        },
        {
          "components": [
            {
              "internalType": "uint256",
              "name": "amount",
              "type": "uint256"
            },
            {
              "internalType": "uint256",
              "name": "deadline",
              "type": "uint256"
            },
            {
              "internalType": "uint8",
              "name": "v",
              "type": "uint8"
            },
            {
              "internalType": "bytes32",
              "name": "r",
              "type": "bytes32"
            },
            {
              "internalType": "bytes32",
              "name": "s",
              "type": "bytes32"
            }
          ],
          "internalType": "struct BaseParaSwapAdapter.PermitSignature",
          "name": "permitParams",
          "type": "tuple"
        }
      ],
      "name": "swapAndDeposit",
      "outputs": [],
      "stateMutability": "nonpayable",
      "type": "function"
    },
    {
      "inputs": [
        {
          "internalType": "address",
          "name": "newOwner",
          "type": "address"
        }
      ],
      "name": "transferOwnership",
      "outputs": [],
      "stateMutability": "nonpayable",
      "type": "function"
    }
  ],
  "bytecode": "0x6101006040523480156200001257600080fd5b506040516200316938038062003169833981016040819052620000359162000328565b82828180806001600160a01b03166080816001600160a01b031681525050806001600160a01b031663026b1d5f6040518163ffffffff1660e01b8152600401602060405180830381865afa15801562000092573d6000803e3d6000fd5b505050506040513d601f19601f82011682018060405250810190620000b891906200037c565b6001600160a01b031660a05250600080546001600160a01b0319163390811782556040519091829160008051602062003149833981519152908290a350806001600160a01b031663fca513a86040518163ffffffff1660e01b8152600401602060405180830381865afa15801562000134573d6000803e3d6000fd5b505050506040513d601f19601f820116820180604052508101906200015a91906200037c565b6001600160a01b0390811660c05260405163fb04e17b60e01b815260006004820152908316915063fb04e17b90602401602060405180830381865afa158015620001a8573d6000803e3d6000fd5b505050506040513d601f19601f82011682018060405250810190620001ce9190620003a3565b15620001d957600080fd5b6001600160a01b031660e0525060018055620001f581620001fe565b505050620003c7565b6000546001600160a01b031633146200025e5760405162461bcd60e51b815260206004820181905260248201527f4f776e61626c653a2063616c6c6572206973206e6f7420746865206f776e657260448201526064015b60405180910390fd5b6001600160a01b038116620002c55760405162461bcd60e51b815260206004820152602660248201527f4f776e61626c653a206e6577206f776e657220697320746865207a65726f206160448201526564647265737360d01b606482015260840162000255565b600080546040516001600160a01b03808516939216916000805160206200314983398151915291a3600080546001600160a01b0319166001600160a01b0392909216919091179055565b6001600160a01b03811681146200032557600080fd5b50565b6000806000606084860312156200033e57600080fd5b83516200034b816200030f565b60208501519093506200035e816200030f565b604085015190925062000371816200030f565b809150509250925092565b6000602082840312156200038f57600080fd5b81516200039c816200030f565b9392505050565b600060208284031215620003b657600080fd5b815180151581146200039c57600080fd5b60805160a05160c05160e051612cee6200045b6000396000818161017601526116f601526000818161014f01526122860152600081816101a50152818161050101528181610924015281816109e201528181610ab801528181610fa00152818161105e01528181611136015281816111ee015281816112890152818161141c01526115d10152600060e70152612cee6000f3fe608060405234801561001057600080fd5b50600436106100c85760003560e01c8063715018a611610081578063920f5c841161005b578063920f5c84146101e5578063d3454a3514610208578063f2fde38b1461021b57600080fd5b8063715018a6146101985780637535d246146101a05780638da5cb5b146101c757600080fd5b806332e4b286116100b257806332e4b2861461013357806338013f021461014a5780633a8298671461017157600080fd5b8062ae3bf8146100cd5780630542975c146100e2575b600080fd5b6100e06100db366004612395565b61022e565b005b6101097f000000000000000000000000000000000000000000000000000000000000000081565b60405173ffffffffffffffffffffffffffffffffffffffff90911681526020015b60405180910390f35b61013c610bb881565b60405190815260200161012a565b6101097f000000000000000000000000000000000000000000000000000000000000000081565b6101097f000000000000000000000000000000000000000000000000000000000000000081565b6100e0610385565b6101097f000000000000000000000000000000000000000000000000000000000000000081565b60005473ffffffffffffffffffffffffffffffffffffffff16610109565b6101f86101f3366004612440565b610475565b604051901515815260200161012a565b6100e061021636600461252b565b6106ed565b6100e0610229366004612395565b610b25565b60005473ffffffffffffffffffffffffffffffffffffffff1633146102b4576040517f08c379a000000000000000000000000000000000000000000000000000000000815260206004820181905260248201527f4f776e61626c653a2063616c6c6572206973206e6f7420746865206f776e657260448201526064015b60405180910390fd5b6103826102d660005473ffffffffffffffffffffffffffffffffffffffff1690565b6040517f70a0823100000000000000000000000000000000000000000000000000000000815230600482015273ffffffffffffffffffffffffffffffffffffffff8416906370a0823190602401602060405180830381865afa158015610340573d6000803e3d6000fd5b505050506040513d601f19601f8201168201806040525081019061036491906125fd565b73ffffffffffffffffffffffffffffffffffffffff84169190610cd6565b50565b60005473ffffffffffffffffffffffffffffffffffffffff163314610406576040517f08c379a000000000000000000000000000000000000000000000000000000000815260206004820181905260248201527f4f776e61626c653a2063616c6c6572206973206e6f7420746865206f776e657260448201526064016102ab565b6000805460405173ffffffffffffffffffffffffffffffffffffffff909116907f8be0079c531659141344cd1fd0a4f28419497f9722a3daafe3b4186f6b6457e0908390a3600080547fffffffffffffffffffffffff0000000000000000000000000000000000000000169055565b6000600260015414156104e4576040517f08c379a000000000000000000000000000000000000000000000000000000000815260206004820152601f60248201527f5265656e7472616e637947756172643a207265656e7472616e742063616c6c0060448201526064016102ab565b60026001553373ffffffffffffffffffffffffffffffffffffffff7f00000000000000000000000000000000000000000000000000000000000000001614610588576040517f08c379a000000000000000000000000000000000000000000000000000000000815260206004820152601360248201527f43414c4c45525f4d5553545f42455f504f4f4c0000000000000000000000000060448201526064016102ab565b6001891480156105985750600187145b80156105a45750600185145b610630576040517f08c379a000000000000000000000000000000000000000000000000000000000815260206004820152602760248201527f464c4153484c4f414e5f4d554c5449504c455f4153534554535f4e4f545f535560448201527f50504f525445440000000000000000000000000000000000000000000000000060648201526084016102ab565b60008888600081811061064557610645612616565b90506020020135905060008787600081811061066357610663612616565b905060200201359050600086905060008d8d600081811061068657610686612616565b905060200201602081019061069b9190612395565b9050600080808080806106b08c8e018e612777565b9550955095509550955095506106ce848484848e8e8e8e8e8e610daf565b60019a5050505050505050505050600180559998505050505050505050565b6002600154141561075a576040517f08c379a000000000000000000000000000000000000000000000000000000000815260206004820152601f60248201527f5265656e7472616e637947756172643a207265656e7472616e742063616c6c0060448201526064016102ab565b6002600155600061076a8a611357565b610100015190508515610877576040517f70a0823100000000000000000000000000000000000000000000000000000000815233600482015260009073ffffffffffffffffffffffffffffffffffffffff8316906370a0823190602401602060405180830381865afa1580156107e4573d6000803e3d6000fd5b505050506040513d601f19601f8201168201806040525081019061080891906125fd565b905088811115610874576040517f08c379a000000000000000000000000000000000000000000000000000000000815260206004820152601b60248201527f494e53554646494349454e545f414d4f554e545f544f5f53574150000000000060448201526064016102ab565b97505b6108928a82338b61088d36889003880188612872565b61148e565b60006108e78787878080601f016020809104026020016040519081016040528093929190818152602001838380828437600081840152601f19601f82011690508083019250505050505050868e8e8e8e6116ae565b6040517f095ea7b300000000000000000000000000000000000000000000000000000000815273ffffffffffffffffffffffffffffffffffffffff7f00000000000000000000000000000000000000000000000000000000000000008116600483015260006024830152919250908b169063095ea7b3906044016020604051808303816000875af1158015610980573d6000803e3d6000fd5b505050506040513d601f19601f820116820180604052508101906109a4919061288e565b506040517f095ea7b300000000000000000000000000000000000000000000000000000000815273ffffffffffffffffffffffffffffffffffffffff7f000000000000000000000000000000000000000000000000000000000000000081166004830152602482018390528b169063095ea7b3906044016020604051808303816000875af1158015610a3a573d6000803e3d6000fd5b505050506040513d601f19601f82011682018060405250810190610a5e919061288e565b506040517fe8eda9df00000000000000000000000000000000000000000000000000000000815273ffffffffffffffffffffffffffffffffffffffff8b8116600483015260248201839052336044830152600060648301527f0000000000000000000000000000000000000000000000000000000000000000169063e8eda9df90608401600060405180830381600087803b158015610afc57600080fd5b505af1158015610b10573d6000803e3d6000fd5b50506001805550505050505050505050505050565b60005473ffffffffffffffffffffffffffffffffffffffff163314610ba6576040517f08c379a000000000000000000000000000000000000000000000000000000000815260206004820181905260248201527f4f776e61626c653a2063616c6c6572206973206e6f7420746865206f776e657260448201526064016102ab565b73ffffffffffffffffffffffffffffffffffffffff8116610c49576040517f08c379a000000000000000000000000000000000000000000000000000000000815260206004820152602660248201527f4f776e61626c653a206e6577206f776e657220697320746865207a65726f206160448201527f646472657373000000000000000000000000000000000000000000000000000060648201526084016102ab565b6000805460405173ffffffffffffffffffffffffffffffffffffffff808516939216917f8be0079c531659141344cd1fd0a4f28419497f9722a3daafe3b4186f6b6457e091a3600080547fffffffffffffffffffffffff00000000000000000000000000000000000000001673ffffffffffffffffffffffffffffffffffffffff92909216919091179055565b6040517fa9059cbb0000000000000000000000000000000000000000000000000000000080825273ffffffffffffffffffffffffffffffffffffffff84166004830152602482018390529060008060448382895af1610d39573d6000803e3d6000fd5b50610d4384611f95565b610da9576040517f08c379a000000000000000000000000000000000000000000000000000000000815260206004820152601560248201527f475076323a206661696c6564207472616e73666572000000000000000000000060448201526064016102ab565b50505050565b6000610dba84611357565b61010001516040517f70a0823100000000000000000000000000000000000000000000000000000000815273ffffffffffffffffffffffffffffffffffffffff87811660048301529192508891600091908416906370a0823190602401602060405180830381865afa158015610e34573d6000803e3d6000fd5b505050506040513d601f19601f82011682018060405250810190610e5891906125fd565b90508c15610edf576000610e6c828a612061565b905082811115610ed8576040517f08c379a000000000000000000000000000000000000000000000000000000000815260206004820152601b60248201527f494e53554646494349454e545f414d4f554e545f544f5f53574150000000000060448201526064016102ab565b9150610f52565b610ee98289612071565b811015610f52576040517f08c379a000000000000000000000000000000000000000000000000000000000815260206004820152601b60248201527f494e53554646494349454e545f41544f4b454e5f42414c414e4345000000000060448201526064016102ab565b6000610f638e8e8e8a8a888b6116ae565b6040517f095ea7b300000000000000000000000000000000000000000000000000000000815273ffffffffffffffffffffffffffffffffffffffff7f000000000000000000000000000000000000000000000000000000000000000081166004830152600060248301529192509087169063095ea7b3906044016020604051808303816000875af1158015610ffc573d6000803e3d6000fd5b505050506040513d601f19601f82011682018060405250810190611020919061288e565b506040517f095ea7b300000000000000000000000000000000000000000000000000000000815273ffffffffffffffffffffffffffffffffffffffff7f0000000000000000000000000000000000000000000000000000000000000000811660048301526024820183905287169063095ea7b3906044016020604051808303816000875af11580156110b6573d6000803e3d6000fd5b505050506040513d601f19601f820116820180604052508101906110da919061288e565b506040517fe8eda9df00000000000000000000000000000000000000000000000000000000815273ffffffffffffffffffffffffffffffffffffffff8781166004830152602482018390528981166044830152600060648301527f0000000000000000000000000000000000000000000000000000000000000000169063e8eda9df90608401600060405180830381600087803b15801561117a57600080fd5b505af115801561118e573d6000803e3d6000fd5b505050506111b187858a6111ab8d8861207190919063ffffffff16565b8f61148e565b6040517f095ea7b300000000000000000000000000000000000000000000000000000000815273ffffffffffffffffffffffffffffffffffffffff7f0000000000000000000000000000000000000000000000000000000000000000811660048301526000602483015288169063095ea7b3906044016020604051808303816000875af1158015611246573d6000803e3d6000fd5b505050506040513d601f19601f8201168201806040525081019061126a919061288e565b5073ffffffffffffffffffffffffffffffffffffffff871663095ea7b37f00000000000000000000000000000000000000000000000000000000000000006112b28d8d612071565b6040517fffffffff0000000000000000000000000000000000000000000000000000000060e085901b16815273ffffffffffffffffffffffffffffffffffffffff909216600483015260248201526044016020604051808303816000875af1158015611322573d6000803e3d6000fd5b505050506040513d601f19601f82011682018060405250810190611346919061288e565b505050505050505050505050505050565b604080516102008101825260006101e08201818152825260208201819052918101829052606081018290526080810182905260a0810182905260c0810182905260e08101829052610100810182905261012081018290526101408101829052610160810182905261018081018290526101a081018290526101c08101919091526040517f35ea6a7500000000000000000000000000000000000000000000000000000000815273ffffffffffffffffffffffffffffffffffffffff83811660048301527f000000000000000000000000000000000000000000000000000000000000000016906335ea6a75906024016101e060405180830381865afa158015611464573d6000803e3d6000fd5b505050506040513d601f19601f820116820180604052508101906114889190612944565b92915050565b60208101511561155b57805160208201516040808401516060850151608086015192517fd505accf00000000000000000000000000000000000000000000000000000000815273ffffffffffffffffffffffffffffffffffffffff89811660048301523060248301526044820196909652606481019490945260ff909116608484015260a483015260c48201529085169063d505accf9060e401600060405180830381600087803b15801561154257600080fd5b505af1158015611556573d6000803e3d6000fd5b505050505b61157d73ffffffffffffffffffffffffffffffffffffffff8516843085612081565b6040517f69328dec00000000000000000000000000000000000000000000000000000000815273ffffffffffffffffffffffffffffffffffffffff86811660048301526024820184905230604483015283917f0000000000000000000000000000000000000000000000000000000000000000909116906369328dec906064016020604051808303816000875af115801561161c573d6000803e3d6000fd5b505050506040513d601f19601f8201168201806040525081019061164091906125fd565b146116a7576040517f08c379a000000000000000000000000000000000000000000000000000000000815260206004820152601b60248201527f554e45585045435445445f414d4f554e545f57495448445241574e000000000060448201526064016102ab565b5050505050565b6040517ffb04e17b00000000000000000000000000000000000000000000000000000000815273ffffffffffffffffffffffffffffffffffffffff86811660048301526000917f00000000000000000000000000000000000000000000000000000000000000009091169063fb04e17b90602401602060405180830381865afa15801561173f573d6000803e3d6000fd5b505050506040513d601f19601f82011682018060405250810190611763919061288e565b6117c9576040517f08c379a000000000000000000000000000000000000000000000000000000000815260206004820152601060248201527f494e56414c49445f41554755535455530000000000000000000000000000000060448201526064016102ab565b60006117d48661215c565b60ff16905060006117e48661215c565b60ff16905060006117f48861223e565b905060006118018861223e565b90506000611859611816610bb8612710612a96565b61185361182e61182789600a612bcd565b86906122f3565b61184d61184661183f8a600a612bcd565b89906122f3565b8d906122f3565b9061231d565b90612330565b9050868111156118c5576040517f08c379a000000000000000000000000000000000000000000000000000000000815260206004820152601f60248201527f4d494e5f414d4f554e545f455843454544535f4d41585f534c4950504147450060448201526064016102ab565b50506040517f70a082310000000000000000000000000000000000000000000000000000000081523060048201526000935073ffffffffffffffffffffffffffffffffffffffff891692506370a082319150602401602060405180830381865afa158015611937573d6000803e3d6000fd5b505050506040513d601f19601f8201168201806040525081019061195b91906125fd565b9050838110156119c7576040517f08c379a000000000000000000000000000000000000000000000000000000000815260206004820181905260248201527f494e53554646494349454e545f42414c414e43455f4245464f52455f5357415060448201526064016102ab565b6040517f70a0823100000000000000000000000000000000000000000000000000000000815230600482015260009073ffffffffffffffffffffffffffffffffffffffff8716906370a0823190602401602060405180830381865afa158015611a34573d6000803e3d6000fd5b505050506040513d601f19601f82011682018060405250810190611a5891906125fd565b905060008873ffffffffffffffffffffffffffffffffffffffff1663d2c4b5986040518163ffffffff1660e01b8152600401602060405180830381865afa158015611aa7573d6000803e3d6000fd5b505050506040513d601f19601f82011682018060405250810190611acb9190612bd9565b6040517f095ea7b300000000000000000000000000000000000000000000000000000000815273ffffffffffffffffffffffffffffffffffffffff8083166004830152600060248301529192509089169063095ea7b3906044016020604051808303816000875af1158015611b44573d6000803e3d6000fd5b505050506040513d601f19601f82011682018060405250810190611b68919061288e565b506040517f095ea7b300000000000000000000000000000000000000000000000000000000815273ffffffffffffffffffffffffffffffffffffffff82811660048301526024820188905289169063095ea7b3906044016020604051808303816000875af1158015611bde573d6000803e3d6000fd5b505050506040513d601f19601f82011682018060405250810190611c02919061288e565b508a15611c955760048b10158015611c2657508951611c22906020612061565b8b11155b611c8c576040517f08c379a000000000000000000000000000000000000000000000000000000000815260206004820152601f60248201527f46524f4d5f414d4f554e545f4f46465345545f4f55545f4f465f52414e47450060448201526064016102ab565b8560208c018b01525b60008973ffffffffffffffffffffffffffffffffffffffff168b604051611cbc9190612bf6565b6000604051808303816000865af19150503d8060008114611cf9576040519150601f19603f3d011682016040523d82523d6000602084013e611cfe565b606091505b5050905080611d11573d6000803e3d6000fd5b611d1b8785612a96565b6040517f70a0823100000000000000000000000000000000000000000000000000000000815230600482015273ffffffffffffffffffffffffffffffffffffffff8b16906370a0823190602401602060405180830381865afa158015611d85573d6000803e3d6000fd5b505050506040513d601f19601f82011682018060405250810190611da991906125fd565b14611e10576040517f08c379a000000000000000000000000000000000000000000000000000000000815260206004820152601860248201527f57524f4e475f42414c414e43455f41465445525f53574150000000000000000060448201526064016102ab565b6040517f70a08231000000000000000000000000000000000000000000000000000000008152306004820152611eaa90849073ffffffffffffffffffffffffffffffffffffffff8b16906370a0823190602401602060405180830381865afa158015611e80573d6000803e3d6000fd5b505050506040513d601f19601f82011682018060405250810190611ea491906125fd565b90612061565b945085851015611f16576040517f08c379a000000000000000000000000000000000000000000000000000000000815260206004820152601c60248201527f494e53554646494349454e545f414d4f554e545f52454345495645440000000060448201526064016102ab565b8773ffffffffffffffffffffffffffffffffffffffff168973ffffffffffffffffffffffffffffffffffffffff167fa078c4190abe07940190effc1846be0ccf03ad6007bc9e93f9697d0b460befbb8988604051611f7e929190918252602082015260400190565b60405180910390a350505050979650505050505050565b6000611fd5565b7f08c379a00000000000000000000000000000000000000000000000000000000060005260206004528060245250806044525060646000fd5b3d8015612014576020811461204e5761200f7f475076323a206d616c666f726d6564207472616e7366657220726573756c7400601f611f9c565b61205b565b823b612045576120457f475076323a206e6f74206120636f6e74726163740000000000000000000000006014611f9c565b6001915061205b565b3d6000803e600051151591505b50919050565b8082038281111561148857600080fd5b8082018281101561148857600080fd5b6040517f23b872dd0000000000000000000000000000000000000000000000000000000080825273ffffffffffffffffffffffffffffffffffffffff8581166004840152841660248301526044820183905290600080606483828a5af16120ec573d6000803e3d6000fd5b506120f685611f95565b6116a7576040517f08c379a000000000000000000000000000000000000000000000000000000000815260206004820152601960248201527f475076323a206661696c6564207472616e7366657246726f6d0000000000000060448201526064016102ab565b6000808273ffffffffffffffffffffffffffffffffffffffff1663313ce5676040518163ffffffff1660e01b8152600401602060405180830381865afa1580156121aa573d6000803e3d6000fd5b505050506040513d601f19601f820116820180604052508101906121ce9190612c31565b9050604d8160ff161115611488576040517f08c379a000000000000000000000000000000000000000000000000000000000815260206004820152601a60248201527f544f4f5f4d414e595f444543494d414c535f4f4e5f544f4b454e00000000000060448201526064016102ab565b6040517fb3596f0700000000000000000000000000000000000000000000000000000000815273ffffffffffffffffffffffffffffffffffffffff82811660048301526000917f00000000000000000000000000000000000000000000000000000000000000009091169063b3596f0790602401602060405180830381865afa1580156122cf573d6000803e3d6000fd5b505050506040513d601f19601f8201168201806040525081019061148891906125fd565b60008215806123145750508181028183828161231157612311612c4e565b04145b61148857600080fd5b60006123298284612c7d565b9392505050565b600081157fffffffffffffffffffffffffffffffffffffffffffffffffffffffffffffec778390048411151761236557600080fd5b506127109102611388010490565b73ffffffffffffffffffffffffffffffffffffffff8116811461038257600080fd5b6000602082840312156123a757600080fd5b813561232981612373565b60008083601f8401126123c457600080fd5b50813567ffffffffffffffff8111156123dc57600080fd5b6020830191508360208260051b85010111156123f757600080fd5b9250929050565b60008083601f84011261241057600080fd5b50813567ffffffffffffffff81111561242857600080fd5b6020830191508360208285010111156123f757600080fd5b600080600080600080600080600060a08a8c03121561245e57600080fd5b893567ffffffffffffffff8082111561247657600080fd5b6124828d838e016123b2565b909b50995060208c013591508082111561249b57600080fd5b6124a78d838e016123b2565b909950975060408c01359150808211156124c057600080fd5b6124cc8d838e016123b2565b909750955060608c013591506124e182612373565b90935060808b013590808211156124f757600080fd5b506125048c828d016123fe565b915080935050809150509295985092959850929598565b803561252681612373565b919050565b6000806000806000806000806000898b0361018081121561254b57600080fd5b8a3561255681612373565b995060208b013561256681612373565b985060408b0135975060608b0135965060808b0135955060a08b013567ffffffffffffffff81111561259757600080fd5b6125a38d828e016123fe565b90965094505060c08b01356125b781612373565b925060a07fffffffffffffffffffffffffffffffffffffffffffffffffffffffffffffff20820112156125e957600080fd5b5060e08a0190509295985092959850929598565b60006020828403121561260f57600080fd5b5051919050565b7f4e487b7100000000000000000000000000000000000000000000000000000000600052603260045260246000fd5b7f4e487b7100000000000000000000000000000000000000000000000000000000600052604160045260246000fd5b6040516101e0810167ffffffffffffffff8111828210171561269857612698612645565b60405290565b604051601f82017fffffffffffffffffffffffffffffffffffffffffffffffffffffffffffffffe016810167ffffffffffffffff811182821017156126e5576126e5612645565b604052919050565b60ff8116811461038257600080fd5b600060a0828403121561270e57600080fd5b60405160a0810181811067ffffffffffffffff8211171561273157612731612645565b806040525080915082358152602083013560208201526040830135612755816126ed565b8060408301525060608301356060820152608083013560808201525092915050565b600080600080600080610140878903121561279157600080fd5b863561279c81612373565b9550602087810135955060408801359450606088013567ffffffffffffffff808211156127c857600080fd5b818a0191508a601f8301126127dc57600080fd5b8135818111156127ee576127ee612645565b61281e847fffffffffffffffffffffffffffffffffffffffffffffffffffffffffffffffe0601f8401160161269e565b91508082528b8482850101111561283457600080fd5b80848401858401376000848284010152508095505050506128576080880161251b565b91506128668860a089016126fc565b90509295509295509295565b600060a0828403121561288457600080fd5b61232983836126fc565b6000602082840312156128a057600080fd5b8151801515811461232957600080fd5b6000602082840312156128c257600080fd5b6040516020810181811067ffffffffffffffff821117156128e5576128e5612645565b6040529151825250919050565b80516fffffffffffffffffffffffffffffffff8116811461252657600080fd5b805164ffffffffff8116811461252657600080fd5b805161ffff8116811461252657600080fd5b805161252681612373565b60006101e0828403121561295757600080fd5b61295f612674565b61296984846128b0565b8152612977602084016128f2565b6020820152612988604084016128f2565b6040820152612999606084016128f2565b60608201526129aa608084016128f2565b60808201526129bb60a084016128f2565b60a08201526129cc60c08401612912565b60c08201526129dd60e08401612927565b60e08201526101006129f0818501612939565b90820152610120612a02848201612939565b90820152610140612a14848201612939565b90820152610160612a26848201612939565b90820152610180612a388482016128f2565b908201526101a0612a4a8482016128f2565b908201526101c0612a5c8482016128f2565b908201529392505050565b7f4e487b7100000000000000000000000000000000000000000000000000000000600052601160045260246000fd5b600082821015612aa857612aa8612a67565b500390565b600181815b80851115612b0657817fffffffffffffffffffffffffffffffffffffffffffffffffffffffffffffffff04821115612aec57612aec612a67565b80851615612af957918102915b93841c9390800290612ab2565b509250929050565b600082612b1d57506001611488565b81612b2a57506000611488565b8160018114612b405760028114612b4a57612b66565b6001915050611488565b60ff841115612b5b57612b5b612a67565b50506001821b611488565b5060208310610133831016604e8410600b8410161715612b89575081810a611488565b612b938383612aad565b807fffffffffffffffffffffffffffffffffffffffffffffffffffffffffffffffff04821115612bc557612bc5612a67565b029392505050565b60006123298383612b0e565b600060208284031215612beb57600080fd5b815161232981612373565b6000825160005b81811015612c175760208186018101518583015201612bfd565b81811115612c26576000828501525b509190910192915050565b600060208284031215612c4357600080fd5b8151612329816126ed565b7f4e487b7100000000000000000000000000000000000000000000000000000000600052601260045260246000fd5b600082612cb3577f4e487b7100000000000000000000000000000000000000000000000000000000600052601260045260246000fd5b50049056fea26469706673582212203080dffdc231aed43750f9a3de21582b81915da1ae2741da3182c4b900018b4f64736f6c634300080a00338be0079c531659141344cd1fd0a4f28419497f9722a3daafe3b4186f6b6457e0",
  "linkReferences": {},
  "deployedLinkReferences": {}
}