{
  "_format": "hh-sol-artifact-1",
  "contractName": "ParaSwapRepayAdapter",
  "sourceName": "contracts/adapters/ParaSwapRepayAdapter.sol",
  "abi": [
    {
      "inputs": [
        {
          "internalType": "contract ILendingPoolAddressesProvider",
          "name": "addressesProvider",
          "type": "address"
        },
        {
          "internalType": "contract IParaSwapAugustusRegistry",
          "name": "augustusRegistry",
          "type": "address"
        }
      ],
      "stateMutability": "nonpayable",
      "type": "constructor"
    },
    {
      "anonymous": false,
      "inputs": [
        {
          "indexed": true,
          "internalType": "address",
          "name": "fromAsset",
          "type": "address"
        },
        {
          "indexed": true,
          "internalType": "address",
          "name": "toAsset",
          "type": "address"
        },
        {
          "indexed": false,
          "internalType": "uint256",
          "name": "amountSold",
          "type": "uint256"
        },
        {
          "indexed": false,
          "internalType": "uint256",
          "name": "receivedAmount",
          "type": "uint256"
        }
      ],
      "name": "Bought",
      "type": "event"
    },
    {
      "anonymous": false,
      "inputs": [
        {
          "indexed": true,
          "internalType": "address",
          "name": "previousOwner",
          "type": "address"
        },
        {
          "indexed": true,
          "internalType": "address",
          "name": "newOwner",
          "type": "address"
        }
      ],
      "name": "OwnershipTransferred",
      "type": "event"
    },
    {
      "anonymous": false,
      "inputs": [
        {
          "indexed": true,
          "internalType": "address",
          "name": "fromAsset",
          "type": "address"
        },
        {
          "indexed": true,
          "internalType": "address",
          "name": "toAsset",
          "type": "address"
        },
        {
          "indexed": false,
          "internalType": "uint256",
          "name": "fromAmount",
          "type": "uint256"
        },
        {
          "indexed": false,
          "internalType": "uint256",
          "name": "receivedAmount",
          "type": "uint256"
        }
      ],
      "name": "Swapped",
      "type": "event"
    },
    {
      "inputs": [],
      "name": "ADDRESSES_PROVIDER",
      "outputs": [
        {
          "internalType": "contract ILendingPoolAddressesProvider",
          "name": "",
          "type": "address"
        }
      ],
      "stateMutability": "view",
      "type": "function"
    },
    {
      "inputs": [],
      "name": "AUGUSTUS_REGISTRY",
      "outputs": [
        {
          "internalType": "contract IParaSwapAugustusRegistry",
          "name": "",
          "type": "address"
        }
      ],
      "stateMutability": "view",
      "type": "function"
    },
    {
      "inputs": [],
      "name": "LENDING_POOL",
      "outputs": [
        {
          "internalType": "contract ILendingPool",
          "name": "",
          "type": "address"
        }
      ],
      "stateMutability": "view",
      "type": "function"
    },
    {
      "inputs": [],
      "name": "MAX_SLIPPAGE_PERCENT",
      "outputs": [
        {
          "internalType": "uint256",
          "name": "",
          "type": "uint256"
        }
      ],
      "stateMutability": "view",
      "type": "function"
    },
    {
      "inputs": [],
      "name": "ORACLE",
      "outputs": [
        {
          "internalType": "contract IPriceOracleGetter",
          "name": "",
          "type": "address"
        }
      ],
      "stateMutability": "view",
      "type": "function"
    },
    {
      "inputs": [
        {
          "internalType": "address[]",
          "name": "assets",
          "type": "address[]"
        },
        {
          "internalType": "uint256[]",
          "name": "amounts",
          "type": "uint256[]"
        },
        {
          "internalType": "uint256[]",
          "name": "premiums",
          "type": "uint256[]"
        },
        {
          "internalType": "address",
          "name": "initiator",
          "type": "address"
        },
        {
          "internalType": "bytes",
          "name": "params",
          "type": "bytes"
        }
      ],
      "name": "executeOperation",
      "outputs": [
        {
          "internalType": "bool",
          "name": "",
          "type": "bool"
        }
      ],
      "stateMutability": "nonpayable",
      "type": "function"
    },
    {
      "inputs": [],
      "name": "owner",
      "outputs": [
        {
          "internalType": "address",
          "name": "",
          "type": "address"
        }
      ],
      "stateMutability": "view",
      "type": "function"
    },
    {
      "inputs": [],
      "name": "renounceOwnership",
      "outputs": [],
      "stateMutability": "nonpayable",
      "type": "function"
    },
    {
      "inputs": [
        {
          "internalType": "contract IERC20",
          "name": "token",
          "type": "address"
        }
      ],
      "name": "rescueTokens",
      "outputs": [],
      "stateMutability": "nonpayable",
      "type": "function"
    },
    {
      "inputs": [
        {
          "internalType": "contract IERC20Detailed",
          "name": "collateralAsset",
          "type": "address"
        },
        {
          "internalType": "contract IERC20Detailed",
          "name": "debtAsset",
          "type": "address"
        },
        {
          "internalType": "uint256",
          "name": "collateralAmount",
          "type": "uint256"
        },
        {
          "internalType": "uint256",
          "name": "debtRepayAmount",
          "type": "uint256"
        },
        {
          "internalType": "uint256",
          "name": "debtRateMode",
          "type": "uint256"
        },
        {
          "internalType": "uint256",
          "name": "buyAllBalanceOffset",
          "type": "uint256"
        },
        {
          "internalType": "bytes",
          "name": "paraswapData",
          "type": "bytes"
        },
        {
          "components": [
            {
              "internalType": "uint256",
              "name": "amount",
              "type": "uint256"
            },
            {
              "internalType": "uint256",
              "name": "deadline",
              "type": "uint256"
            },
            {
              "internalType": "uint8",
              "name": "v",
              "type": "uint8"
            },
            {
              "internalType": "bytes32",
              "name": "r",
              "type": "bytes32"
            },
            {
              "internalType": "bytes32",
              "name": "s",
              "type": "bytes32"
            }
          ],
          "internalType": "struct BaseParaSwapAdapter.PermitSignature",
          "name": "permitSignature",
          "type": "tuple"
        }
      ],
      "name": "swapAndRepay",
      "outputs": [],
      "stateMutability": "nonpayable",
      "type": "function"
    },
    {
      "inputs": [
        {
          "internalType": "address",
          "name": "newOwner",
          "type": "address"
        }
      ],
      "name": "transferOwnership",
      "outputs": [],
      "stateMutability": "nonpayable",
      "type": "function"
    }
  ],
  "bytecode": "0x6101006040523480156200001257600080fd5b50604051620029e5380380620029e58339810160408190526200003591620002cd565b81818180806001600160a01b03166080816001600160a01b031660601b81525050806001600160a01b0316630261bf8b6040518163ffffffff1660e01b815260040160206040518083038186803b1580156200009057600080fd5b505afa158015620000a5573d6000803e3d6000fd5b505050506040513d601f19601f82011682018060405250810190620000cb919062000285565b60601b6001600160601b03191660a052506000620000e862000281565b600080546001600160a01b0319166001600160a01b0383169081178255604051929350917f8be0079c531659141344cd1fd0a4f28419497f9722a3daafe3b4186f6b6457e0908290a350806001600160a01b031663fca513a86040518163ffffffff1660e01b815260040160206040518083038186803b1580156200016c57600080fd5b505afa15801562000181573d6000803e3d6000fd5b505050506040513d601f19601f82011682018060405250810190620001a7919062000285565b60601b6001600160601b03191660c0525060405163fb04e17b60e01b81526001600160a01b0382169063fb04e17b90620001e7906000906004016200030b565b60206040518083038186803b1580156200020057600080fd5b505afa15801562000215573d6000803e3d6000fd5b505050506040513d601f19601f820116820180604052508101906200023b9190620002ab565b15620002645760405162461bcd60e51b81526004016200025b906200031f565b60405180910390fd5b60601b6001600160601b03191660e052505060018055506200036f565b3390565b60006020828403121562000297578081fd5b8151620002a48162000356565b9392505050565b600060208284031215620002bd578081fd5b81518015158114620002a4578182fd5b60008060408385031215620002e0578081fd5b8251620002ed8162000356565b6020840151909250620003008162000356565b809150509250929050565b6001600160a01b0391909116815260200190565b6020808252601c908201527f4e6f7420612076616c6964204175677573747573206164647265737300000000604082015260600190565b6001600160a01b03811681146200036c57600080fd5b50565b60805160601c60a05160601c60c05160601c60e05160601c6125e4620004016000398061028c52806109d052508061026852806115a1525080610361528061039652806103d25280610450528061048552806104c15280610623528061071a528061105b528061109052806110b7528061118352806111ae5280611302528061144552508061023e52506125e46000f3fe608060405234801561001057600080fd5b50600436106100a85760003560e01c80634db9dc97116100715780634db9dc9714610105578063715018a6146101185780638da5cb5b14610120578063920f5c8414610128578063b4dcfc7714610148578063f2fde38b14610150576100a8565b8062ae3bf8146100ad5780630542975c146100c257806332e4b286146100e057806338013f02146100f55780633a829867146100fd575b600080fd5b6100c06100bb366004611a41565b610163565b005b6100ca61023c565b6040516100d79190611ec0565b60405180910390f35b6100e8610260565b6040516100d791906124fc565b6100ca610266565b6100ca61028a565b6100c0610113366004611bfe565b6102ae565b6100c0610560565b6100ca6105df565b61013b610136366004611a79565b6105ee565b6040516100d79190611fe7565b6100ca610718565b6100c061015e366004611a41565b61073c565b61016b6107f2565b6000546001600160a01b039081169116146101a15760405162461bcd60e51b815260040161019890612314565b60405180910390fd5b6102396101ac6105df565b6040516370a0823160e01b81526001600160a01b038416906370a08231906101d8903090600401611ec0565b60206040518083038186803b1580156101f057600080fd5b505afa158015610204573d6000803e3d6000fd5b505050506040513d601f19601f820116820180604052508101906102289190611e70565b6001600160a01b03841691906107f6565b50565b7f000000000000000000000000000000000000000000000000000000000000000081565b610bb881565b7f000000000000000000000000000000000000000000000000000000000000000081565b7f000000000000000000000000000000000000000000000000000000000000000081565b600260015414156102d15760405162461bcd60e51b815260040161019890612401565b60026001556102e38886868933610851565b95506102ff8933896102fa36869003860186611d5a565b610975565b60006103478585858080601f0160208091040260200160405190810160405280939291908181526020018383808284376000920191909152508f92508e91508d90508c61099a565b90508088038015610441576103876001600160a01b038c167f00000000000000000000000000000000000000000000000000000000000000006000610f40565b6103bb6001600160a01b038c167f000000000000000000000000000000000000000000000000000000000000000083610f40565b60405163e8eda9df60e01b81526001600160a01b037f0000000000000000000000000000000000000000000000000000000000000000169063e8eda9df9061040e908e9085903390600090600401611f8f565b600060405180830381600087803b15801561042857600080fd5b505af115801561043c573d6000803e3d6000fd5b505050505b6104766001600160a01b038b167f00000000000000000000000000000000000000000000000000000000000000006000610f40565b6104aa6001600160a01b038b167f00000000000000000000000000000000000000000000000000000000000000008a610f40565b60405163573ade8160e01b81526001600160a01b037f0000000000000000000000000000000000000000000000000000000000000000169063573ade81906104fc908d908c908c903390600401611fbc565b602060405180830381600087803b15801561051657600080fd5b505af115801561052a573d6000803e3d6000fd5b505050506040513d601f19601f8201168201806040525081019061054e9190611e70565b50506001805550505050505050505050565b6105686107f2565b6000546001600160a01b039081169116146105955760405162461bcd60e51b815260040161019890612314565b600080546040516001600160a01b03909116907f8be0079c531659141344cd1fd0a4f28419497f9722a3daafe3b4186f6b6457e0908390a3600080546001600160a01b0319169055565b6000546001600160a01b031690565b6000600260015414156106135760405162461bcd60e51b815260040161019890612401565b6002600155336001600160a01b037f000000000000000000000000000000000000000000000000000000000000000016146106605760405162461bcd60e51b81526004016101989061205c565b6001891480156106705750600187145b801561067c5750600185145b6106985760405162461bcd60e51b815260040161019890612110565b6000888860008181106106a757fe5b9050602002013590506000878760008181106106bf57fe5b905060200201359050600086905060008d8d60008181106106dc57fe5b90506020020160208101906106f19190611a41565b9050610701878785858589611003565b505060018080559c9b505050505050505050505050565b7f000000000000000000000000000000000000000000000000000000000000000081565b6107446107f2565b6000546001600160a01b039081169116146107715760405162461bcd60e51b815260040161019890612314565b6001600160a01b0381166107975760405162461bcd60e51b815260040161019890612093565b600080546040516001600160a01b03808516939216917f8be0079c531659141344cd1fd0a4f28419497f9722a3daafe3b4186f6b6457e091a3600080546001600160a01b0319166001600160a01b0392909216919091179055565b3390565b61084c8363a9059cbb60e01b8484604051602401610815929190611f53565b60408051601f198184030181529190526020810180516001600160e01b03166001600160e01b0319909316929092179091526111f8565b505050565b600061085b611842565b610864876112e3565b90506000600187600281111561087657fe5b600281111561088157fe5b1461089157816101200151610898565b8161010001515b90506000816001600160a01b03166370a08231866040518263ffffffff1660e01b81526004016108c89190611ec0565b60206040518083038186803b1580156108e057600080fd5b505afa1580156108f4573d6000803e3d6000fd5b505050506040513d601f19601f820116820180604052508101906109189190611e70565b9050861561094857858111156109405760405162461bcd60e51b815260040161019890612025565b809550610968565b808611156109685760405162461bcd60e51b815260040161019890612380565b5093979650505050505050565b6000610980856112e3565b60e001519050610993858286868661138e565b5050505050565b600060606000878060200190518101906109b49190611b6f565b60405163fb04e17b60e01b815291935091506001600160a01b037f0000000000000000000000000000000000000000000000000000000000000000169063fb04e17b90610a05908490600401611ec0565b60206040518083038186803b158015610a1d57600080fd5b505afa158015610a31573d6000803e3d6000fd5b505050506040513d601f19601f82011682018060405250810190610a559190611b4f565b610a715760405162461bcd60e51b815260040161019890612157565b6000610a7c886114ed565b60ff1690506000610a8c886114ed565b60ff1690506000610a9c8a611587565b90506000610aa98a611587565b90506000610af3610abe612710610bb8611626565b610aed610acf86600a89900a611652565b610ae7610ae087600a8c900a611652565b8e90611652565b9061168c565b906116ce565b9050808a1115610b155760405162461bcd60e51b815260040161019890612222565b50506040516370a0823160e01b8152600093506001600160a01b038b1692506370a082319150610b49903090600401611ec0565b60206040518083038186803b158015610b6157600080fd5b505afa158015610b75573d6000803e3d6000fd5b505050506040513d601f19601f82011682018060405250810190610b999190611e70565b905085811015610bbb5760405162461bcd60e51b8152600401610198906121ed565b6040516370a0823160e01b81526000906001600160a01b038916906370a0823190610bea903090600401611ec0565b60206040518083038186803b158015610c0257600080fd5b505afa158015610c16573d6000803e3d6000fd5b505050506040513d601f19601f82011682018060405250810190610c3a9190611e70565b90506000836001600160a01b031663d2c4b5986040518163ffffffff1660e01b815260040160206040518083038186803b158015610c7757600080fd5b505afa158015610c8b573d6000803e3d6000fd5b505050506040513d601f19601f82011682018060405250810190610caf9190611a5d565b9050610cc66001600160a01b038b16826000610f40565b610cda6001600160a01b038b16828a610f40565b8b15610d225760048c10158015610cfd57508451610cf9906020611740565b8c11155b610d195760405162461bcd60e51b8152600401610198906121b6565b8660208d018601525b6000846001600160a01b031686604051610d3c9190611ea4565b6000604051808303816000865af19150503d8060008114610d79576040519150601f19603f3d011682016040523d82523d6000602084013e610d7e565b606091505b5050905080610d91573d6000803e3d6000fd5b6040516370a0823160e01b81526000906001600160a01b038d16906370a0823190610dc0903090600401611ec0565b60206040518083038186803b158015610dd857600080fd5b505afa158015610dec573d6000803e3d6000fd5b505050506040513d601f19601f82011682018060405250810190610e109190611e70565b9050808503975089881115610e375760405162461bcd60e51b815260040161019890612349565b6000610ebf858d6001600160a01b03166370a08231306040518263ffffffff1660e01b8152600401610e699190611ec0565b60206040518083038186803b158015610e8157600080fd5b505afa158015610e95573d6000803e3d6000fd5b505050506040513d601f19601f82011682018060405250810190610eb99190611e70565b90611740565b905089811015610ee15760405162461bcd60e51b815260040161019890612265565b8b6001600160a01b03168d6001600160a01b03167fbf77fd13a39d14dc0da779342c14105c38d9a5d0c60f2caa22f5fd1d5525416d8b84604051610f26929190612505565b60405180910390a350505050505050509695505050505050565b801580610fc85750604051636eb1769f60e11b81526001600160a01b0384169063dd62ed3e90610f769030908690600401611ed4565b60206040518083038186803b158015610f8e57600080fd5b505afa158015610fa2573d6000803e3d6000fd5b505050506040513d601f19601f82011682018060405250810190610fc69190611e70565b155b610fe45760405162461bcd60e51b815260040161019890612438565b61084c8363095ea7b360e01b8484604051602401610815929190611f53565b60008060008060606110136118ad565b61101f8b8d018d611ca6565b955095509550955095509550611038868486888d610851565b9450600061104a85848b8a8c8b61099a565b90506110816001600160a01b0388167f00000000000000000000000000000000000000000000000000000000000000006000610f40565b6110b56001600160a01b0388167f000000000000000000000000000000000000000000000000000000000000000088610f40565b7f00000000000000000000000000000000000000000000000000000000000000006001600160a01b031663573ade818888878e6040518563ffffffff1660e01b81526004016111079493929190611fbc565b602060405180830381600087803b15801561112157600080fd5b505af1158015611135573d6000803e3d6000fd5b505050506040513d601f19601f820116820180604052508101906111599190611e70565b506000611166828d611626565b90506111748a8c8386610975565b6111a96001600160a01b038b167f00000000000000000000000000000000000000000000000000000000000000006000610f40565b6111e87f00000000000000000000000000000000000000000000000000000000000000006111d78b8f611626565b6001600160a01b038d169190610f40565b5050505050505050505050505050565b61120a826001600160a01b0316611782565b6112265760405162461bcd60e51b81526004016101989061248e565b60006060836001600160a01b0316836040516112429190611ea4565b6000604051808303816000865af19150503d806000811461127f576040519150601f19603f3d011682016040523d82523d6000602084013e611284565b606091505b5091509150816112a65760405162461bcd60e51b815260040161019890612181565b8051156112dd57808060200190518101906112c19190611b4f565b6112dd5760405162461bcd60e51b8152600401610198906123b7565b50505050565b6112eb611842565b6040516335ea6a7560e01b81526001600160a01b037f000000000000000000000000000000000000000000000000000000000000000016906335ea6a7590611337908590600401611ec0565b6101806040518083038186803b15801561135057600080fd5b505afa158015611364573d6000803e3d6000fd5b505050506040513d601f19601f820116820180604052508101906113889190611d75565b92915050565b60208101511561141757836001600160a01b031663d505accf8430846000015185602001518660400151876060015188608001516040518863ffffffff1660e01b81526004016113e49796959493929190611f12565b600060405180830381600087803b1580156113fe57600080fd5b505af1158015611412573d6000803e3d6000fd5b505050505b61142c6001600160a01b0385168430856117be565b604051631a4ca37b60e21b815282906001600160a01b037f000000000000000000000000000000000000000000000000000000000000000016906369328dec9061147e90899085903090600401611f6c565b602060405180830381600087803b15801561149857600080fd5b505af11580156114ac573d6000803e3d6000fd5b505050506040513d601f19601f820116820180604052508101906114d09190611e70565b146109935760405162461bcd60e51b81526004016101989061229c565b600080826001600160a01b031663313ce5676040518163ffffffff1660e01b815260040160206040518083038186803b15801561152957600080fd5b505afa15801561153d573d6000803e3d6000fd5b505050506040513d601f19601f820116820180604052508101906115619190611e88565b9050604d8160ff1611156113885760405162461bcd60e51b8152600401610198906124c5565b60405163b3596f0760e01b81526000906001600160a01b037f0000000000000000000000000000000000000000000000000000000000000000169063b3596f07906115d6908590600401611ec0565b60206040518083038186803b1580156115ee57600080fd5b505afa158015611602573d6000803e3d6000fd5b505050506040513d601f19601f820116820180604052508101906113889190611e70565b60008282018381101561164b5760405162461bcd60e51b8152600401610198906120d9565b9392505050565b60008261166157506000611388565b8282028284828161166e57fe5b041461164b5760405162461bcd60e51b8152600401610198906122d3565b600061164b83836040518060400160405280601a81526020017f536166654d6174683a206469766973696f6e206279207a65726f0000000000008152506117df565b60008215806116db575081155b156116e857506000611388565b8161138819816116f457fe5b0483111560405180604001604052806002815260200161068760f31b815250906117315760405162461bcd60e51b81526004016101989190611ff2565b50506127109102611388010490565b600061164b83836040518060400160405280601e81526020017f536166654d6174683a207375627472616374696f6e206f766572666c6f770000815250611816565b6000813f7fc5d2460186f7233c927e7db2dcc703c0e500b653ca82273b7bfad8045d85a4708181148015906117b657508115155b949350505050565b6112dd846323b872dd60e01b85858560405160240161081593929190611eee565b600081836118005760405162461bcd60e51b81526004016101989190611ff2565b50600083858161180c57fe5b0495945050505050565b6000818484111561183a5760405162461bcd60e51b81526004016101989190611ff2565b505050900390565b6040518061018001604052806118566118db565b815260006020820181905260408201819052606082018190526080820181905260a0820181905260c0820181905260e082018190526101008201819052610120820181905261014082018190526101609091015290565b6040805160a08101825260008082526020820181905291810182905260608101829052608081019190915290565b6040518060200160405280600081525090565b80516113888161258a565b60008083601f84011261190a578182fd5b50813567ffffffffffffffff811115611921578182fd5b602083019150836020808302850101111561193b57600080fd5b9250929050565b60008083601f840112611953578182fd5b50813567ffffffffffffffff81111561196a578182fd5b60208301915083602082850101111561193b57600080fd5b600060a08284031215611993578081fd5b61199d60a0612513565b9050813581526020820135602082015260408201356119bb8161259f565b80604083015250606082013560608201526080820135608082015292915050565b6000602082840312156119ed578081fd5b6119f76020612513565b9151825250919050565b80516fffffffffffffffffffffffffffffffff8116811461138857600080fd5b805164ffffffffff8116811461138857600080fd5b80516113888161259f565b600060208284031215611a52578081fd5b813561164b8161258a565b600060208284031215611a6e578081fd5b815161164b8161258a565b600080600080600080600080600060a08a8c031215611a96578485fd5b893567ffffffffffffffff80821115611aad578687fd5b611ab98d838e016118f9565b909b50995060208c0135915080821115611ad1578687fd5b611add8d838e016118f9565b909950975060408c0135915080821115611af5578687fd5b611b018d838e016118f9565b909750955060608c01359150611b168261258a565b90935060808b01359080821115611b2b578384fd5b50611b388c828d01611942565b915080935050809150509295985092959850929598565b600060208284031215611b60578081fd5b8151801515811461164b578182fd5b60008060408385031215611b81578182fd5b825167ffffffffffffffff811115611b97578283fd5b8301601f81018513611ba7578283fd5b8051611bba611bb58261253a565b612513565b818152866020838501011115611bce578485fd5b611bdf82602083016020860161255e565b8094505050506020830151611bf38161258a565b809150509250929050565b6000806000806000806000806000898b03610180811215611c1d578384fd5b8a35611c288161258a565b995060208b0135611c388161258a565b985060408b0135975060608b0135965060808b0135955060a08b0135945060c08b013567ffffffffffffffff811115611c6f578485fd5b611c7b8d828e01611942565b90955093505060a060df1982011215611c92578182fd5b5060e08a0190509295985092959850929598565b6000806000806000806101408789031215611cbf578384fd5b8635611cca8161258a565b9550602087013594506040870135935060608701359250608087013567ffffffffffffffff811115611cfa578283fd5b8701601f81018913611d0a578283fd5b8035611d18611bb58261253a565b8181528a6020838501011115611d2c578485fd5b816020840160208301379081016020019390935250611d4e8860a08901611982565b90509295509295509295565b600060a08284031215611d6b578081fd5b61164b8383611982565b6000610180808385031215611d88578182fd5b611d9181612513565b9050611d9d84846119dc565b8152611dac8460208501611a01565b6020820152611dbe8460408501611a01565b6040820152611dd08460608501611a01565b6060820152611de28460808501611a01565b6080820152611df48460a08501611a01565b60a0820152611e068460c08501611a21565b60c0820152611e188460e085016118ee565b60e0820152610100611e2c858286016118ee565b90820152610120611e3f858583016118ee565b90820152610140611e52858583016118ee565b90820152610160611e6585858301611a36565b908201529392505050565b600060208284031215611e81578081fd5b5051919050565b600060208284031215611e99578081fd5b815161164b8161259f565b60008251611eb681846020870161255e565b9190910192915050565b6001600160a01b0391909116815260200190565b6001600160a01b0392831681529116602082015260400190565b6001600160a01b039384168152919092166020820152604081019190915260600190565b6001600160a01b0397881681529590961660208601526040850193909352606084019190915260ff16608083015260a082015260c081019190915260e00190565b6001600160a01b03929092168252602082015260400190565b6001600160a01b0393841681526020810192909252909116604082015260600190565b6001600160a01b03948516815260208101939093529216604082015261ffff909116606082015260800190565b6001600160a01b03948516815260208101939093526040830191909152909116606082015260800190565b901515815260200190565b600060208252825180602084015261201181604085016020870161255e565b601f01601f19169190910160400192915050565b6020808252601c908201527f494e53554646494349454e545f414d4f554e545f544f5f524550415900000000604082015260600190565b6020808252601b908201527f43414c4c45525f4d5553545f42455f4c454e44494e475f504f4f4c0000000000604082015260600190565b60208082526026908201527f4f776e61626c653a206e6577206f776e657220697320746865207a65726f206160408201526564647265737360d01b606082015260800190565b6020808252601b908201527f536166654d6174683a206164646974696f6e206f766572666c6f770000000000604082015260600190565b60208082526027908201527f464c4153484c4f414e5f4d554c5449504c455f4153534554535f4e4f545f5355604082015266141413d495115160ca1b606082015260800190565b60208082526010908201526f494e56414c49445f415547555354555360801b604082015260600190565b6020808252818101527f5361666545524332303a206c6f772d6c6576656c2063616c6c206661696c6564604082015260600190565b6020808252601d908201527f544f5f414d4f554e545f4f46465345545f4f55545f4f465f52414e4745000000604082015260600190565b6020808252818101527f494e53554646494349454e545f42414c414e43455f4245464f52455f53574150604082015260600190565b60208082526023908201527f6d6178416d6f756e74546f5377617020657863656564206d617820736c69707060408201526261676560e81b606082015260800190565b6020808252601c908201527f494e53554646494349454e545f414d4f554e545f524543454956454400000000604082015260600190565b6020808252601b908201527f554e45585045435445445f414d4f554e545f57495448445241574e0000000000604082015260600190565b60208082526021908201527f536166654d6174683a206d756c7469706c69636174696f6e206f766572666c6f6040820152607760f81b606082015260800190565b6020808252818101527f4f776e61626c653a2063616c6c6572206973206e6f7420746865206f776e6572604082015260600190565b60208082526018908201527f57524f4e475f42414c414e43455f41465445525f535741500000000000000000604082015260600190565b60208082526019908201527f494e56414c49445f444542545f52455041595f414d4f554e5400000000000000604082015260600190565b6020808252602a908201527f5361666545524332303a204552433230206f7065726174696f6e20646964206e6040820152691bdd081cdd58d8d9595960b21b606082015260800190565b6020808252601f908201527f5265656e7472616e637947756172643a207265656e7472616e742063616c6c00604082015260600190565b60208082526036908201527f5361666545524332303a20617070726f76652066726f6d206e6f6e2d7a65726f60408201527520746f206e6f6e2d7a65726f20616c6c6f77616e636560501b606082015260800190565b6020808252601f908201527f5361666545524332303a2063616c6c20746f206e6f6e2d636f6e747261637400604082015260600190565b6020808252601a908201527f544f4f5f4d414e595f444543494d414c535f4f4e5f544f4b454e000000000000604082015260600190565b90815260200190565b918252602082015260400190565b60405181810167ffffffffffffffff8111828210171561253257600080fd5b604052919050565b600067ffffffffffffffff821115612550578081fd5b50601f01601f191660200190565b60005b83811015612579578181015183820152602001612561565b838111156112dd5750506000910152565b6001600160a01b038116811461023957600080fd5b60ff8116811461023957600080fdfea2646970667358221220ef0793d42b5722a1f5a3ed2815f056051b46e29a349f73b9e9cba54d22109a6964736f6c634300060c0033",
  "linkReferences": {},
  "deployedLinkReferences": {}
}